S01700004265636B657250696F6E65657246572E7372656352
S113000065C0000082C0000080C000007EC0000007
S11300107CC000007AC0000078C0000076C00000F8
S113002074C0000072C0000070C000006EC0000008
S11300306CC000006AC0000068C0000066C0000018
S113004064C0000062C0000060C000005EC0000028
S11300505CC000005AC0000058C0000056C0000038
S113006054C000007BC1000050C000004EC000001E
S11300704CC000005DC0000048C0000046C0000045
S113008044C0000042C0000040C000003EC0000068
S11300903CC000003AC0000038C0000036C0000078
S11300A034C0000032C0000030C000002EC0000088
S11300B02CC0000061C4000028C0000026C000005D
S11300C024C0000022C0000020C0000011241FBE74
S11300D0CFEFD1E2DEBFCDBF00E00CBF12E0A0E065
S11300E0B2E0E2E5FBE000E00BBF02C007900D9236
S11300F0A635B107D9F722E0A6E5B2E001C01D920A
S1130100AA3CB207E1F754D222C57ACFCF93DF934A
S1130110CDB7DEB78CE790E020E6FC0120838AE7C8
S113012090E02DEEFC0120830000DF91CF91089533
S11301301F920F9200905F000F92112400905B00B9
S11301400F928F939F93EF93FF93CF93DF93CDB74A
S1130150DEB789E790E0FC01808180930002000013
S1130160DF91CF91FF91EF919F918F910F9000922A
S11301705B000F9000925F000F901F901895CF9333
S1130180DF93CDB7DEB710925C021092C902000073
S1130190DF91CF910895CF93DF931F921F92CDB734
S11301A0DEB789836A8380915C02482F50E089819D
S11301B0882F90E064E2649F9001659F300D1124C4
S11301C0820F931F835A9D4F2A81FC0120830000D4
S11301D00F900F90DF91CF910895CF93DF93CDB718
S11301E0DEB780915C028F5F80935C0280915C0239
S11301F0833011F410925C020000DF91CF910895D6
S1130200CF93DF93CDB7DEB790915C028091C902A2
S1130210981719F480E090E00CC08091C902282F4F
S113022030E044E2429FC001439F900D1124835A61
S11302309D4FDF91CF910895CF93DF93CDB7DEB774
S113024090915C028091C902292F281B822FDF9193
S1130250CF910895CF93DF93CDB7DEB78091C902D4
S11302608F5F8093C9028091C902833011F4109288
S1130270C9020000DF91CF910895CF93DF93CDB7EA
S1130280DEB7C5D308D07BDF10925602C3D200007C
S1130290DF91CF910895CF93DF93CDB7DEB78DE291
S11302A090E02DE230E0F90120812B7FFC012083D6
S11302B08EE290E02EE230E0F90120812460FC011E
S11302C020830000DF91CF910895CF93DF93CDB7C2
S11302D0DEB727970FB6F894DEBF0FBECDBF9F835E
S11302E08E838AE090E0CBD219821C821D828E819B
S11302F09F81FC0181818C83C6D31B821A8219C021
S11303008A819B812E813F81820F931FFC01808112
S11303109981892789838A819B812E813F81820FDC
S1130320931FFC01808194D38A819B8101969B83D6
S11303308A838C81282F30E08A819B812817390792
S1130340FCF6898185D3B0D3000027960FB6F894C4
S1130350DEBF0FBECDBFDF91CF9108951F920F92E4
S113036000905F000F92112400905B000F922F9376
S11303703F934F935F936F937F938F939F93AF9329
S1130380BF93EF93FF93CF93DF931F921F92CDB749
S1130390DEB786EC90E0FC018081898348D28A83B1
S11303A08A818E3138F0698180E0F5DE82E08093C5
S11303B0560243C080915602882F90E08230910506
S11303C019F00397A9F039C08981843268F48981CE
S11303D080935702698181E0DEDE82E080935802D7
S11303E083E08093560229C081E08093560225C0A1
S11303F080915802282F30E080915702882F90E096
S113040002962817390724F4809158026981C3DEC3
S1130410809158028F5F8093580280915802282F50
S113042030E080915702882F90E002962817390710
S113043019F4D3DE10925602000010D200000F907F
S11304400F90DF91CF91FF91EF91BF91AF919F9169
S11304508F917F916F915F914F913F912F910F9069
S113046000925B000F9000925F000F901F90189510
S1130470CF93DF9300D01F921F92CDB7DEB780EDEC
S1130480898385E08A838FEB8B838CE58C838091D1
S113049000028D831E82CE01019617DF00000F90AB
S11304A00F900F900F900F90DF91CF910895CF93FD
S11304B0DF9300D000D0CDB7DEB78E838E818983E1
S11304C084E08A838FEF8B8382E08C8381E08D8349
S11304D0CE010196FADE000026960FB6F894DEBF30
S11304E00FBECDBFDF91CF910895CF93DF931F92BD
S11304F01F92CDB7DEB79A83898389819A81FC01E3
S11305008081882F90E08035910509F04BC0898166
S11305109A810296FC018081882F90E0883C9105A5
S113052091F1803D910509F18836910509F039C0B2
S113053089819A810396FC018081882F90E0C2977B
S113054009F02FC089819A810496FC018081882F4B
S113055090E08130910529F0419709F004C00AD157
S113056002C013D1000000001CC089819A81039647
S1130570FC018081882F90E08D35910509F011C030
S113058077DF00000EC089819A810396FC01808187
S1130590882F90E0019709F003C088EC88DF000001
S11305A00000000000000F900F90DF91CF9108959C
S11305B0CF93DF9300D0CDB7DEB719825EDED0D003
S11305C0A5DD789439DE898389818823D9F318DEFF
S11305D09B838A838A819B8188DF3CDEF3CFCF9320
S11305E0DF931F921F92CDB7DEB789836A8385E2BA
S11305F090E025E230E0F90120812E7FFC01208388
S11306008981805FF0D08A81EED085E290E025E296
S113061030E0F90120812160FC01208300000F906B
S11306200F90DF91CF910895CF93DF93CDB7DEB7CD
S113063081E0809359025ED10000DF91CF9108954B
S1130640CF93DF93CDB7DEB72C970FB6F894DEBF08
S11306500FBECDBF2CE0EDE3F2E0CE010196DC014C
S113066001900D922A95E1F7CE01019645D2000042
S11306702C960FB6F894DEBF0FBECDBFDF91CF919D
S11306800895CF93DF93CDB7DEB72C970FB6F894C8
S1130690DEBF0FBECDBF2CE0E9E4F2E0CE0101964F
S11306A0DC0101900D922A95E1F7CE01019624D246
S11306B000002C960FB6F894DEBF0FBECDBFDF91BD
S11306C0CF910895CF93DF93CDB7DEB781E092E069
S11306D013D20000DF91CF910895CF93DF93CDB76C
S11306E0DEB75ED061E081E07ADF61E082E077DF4F
S11306F00000DF91CF910895CF93DF93CDB7DEB79C
S113070066ED81E06CDF66ED82E069DF0000DF9179
S1130710CF910895CF93DF93CDB7DEB764EC81E03A
S11307205EDF64EC82E05BDF0000DF91CF9108952F
S1130730CF93DF93CDB7DEB761E081E050DF61E0B6
S113074082E04DDF0000DF91CF910895CF93DF93D6
S1130750CDB7DEB7B7DFECDF0000DF91CF910895AE
S1130760CF93DF93CDB7DEB7B8DF5EDF0000DF9154
S1130770CF910895CF93DF93CDB7DEB761DFBCDFB0
S1130780E5DF0000DF91CF910895CF93DF93CDB7DC
S1130790DEB777DFBFDFDADF0000DF91CF910895A6
S11307A0CF93DF93CDB7DEB784E290E024E230E06C
S11307B0F90120812760FC01208385E290E025E295
S11307C030E0F90120812160FC0120838CE490E079
S11307D02CE430E0F90120812165FC012083000034
S11307E0DF91CF910895CF93DF931F92CDB7DEB7FA
S11307F089838EE490E02981FC01208300008DE44C
S113080090E0FC0180818823D4F700000F90DF91F1
S1130810CF910895CF93DF93CDB7DEB785E490E011
S113082025E0FC0120830000DF91CF910895CF9350
S1130830DF93CDB7DEB785E390E0FC018081882F9C
S113084090E081709927892B11F08FEF04C086E422
S113085090E0FC018081DF91CF910895CF93DF93E5
S1130860CDB7DEB785E390E021E0FC01208386E488
S113087090E0FC0110820000DF91CF910895CF93A6
S1130880DF931F921F92CDB7DEB79A83898384E2E8
S113089091E020E831ECFC013183208381E291E096
S11308A021E231E0F90120812160FC012083000074
S11308B08AE390E0FC018081882F90E08170992781
S11308C0892BB1F38AE390E02AE330E0F901208137
S11308D02160FC01208389819A8101979A8389830D
S11308E089819A81892B99F600000F900F90DF91EE
S11308F0CF910895CF93DF93CDB7DEB784EA90E02C
S11309002EEE35E8FC013183208381EA90E021EA70
S113091030E0F90120812460FC01208382E790E02B
S113092022E730E0F90120812160FC0120830000EE
S1130930DF91CF910895CF93DF93CDB7DEB781EAEE
S113094090E021EA30E0F9012081FC0120830000DD
S1130950DF91CF910895CF93DF93CDB7DEB781EACE
S113096090E021EA30E0F90120812A7FFC01208314
S11309700000DF91CF9108951F920F9200905F00C5
S11309800F92112400905B000F922F933F934F938B
S11309905F936F937F938F939F93AF93BF93EF93E3
S11309A0FF93CF93DF93CDB7DEB7809159028823AD
S11309B071F080915B02883038F436DE80915B02FE
S11309C08F5F80935B0203C010925902B4DF809161
S11309D05A02882321F076DE10925A02BCDF00000E
S11309E0DF91CF91FF91EF91BF91AF919F918F9143
S11309F07F916F915F914F913F912F910F90009252
S1130A005B000F9000925F000F901F901895CF939A
S1130A10DF931F92CDB7DEB7198284EC90E027E60E
S1130A2030E0FC013183208381EC90E028E9FC0173
S1130A30208382EC90E026E2FC01208386EC90E0A7
S1130A40FC018081898300000F90DF91CF9108958C
S1130A50CF93DF931F92CDB7DEB78983000080EC7C
S1130A6090E0FC018081882F90E080729927892B87
S1130A70B1F386EC90E02981FC01208300000F9003
S1130A80DF91CF910895CF93DF93CDB7DEB781EC9B
S1130A9090E021EC30E0F90120812F7EFC012083DD
S1130AA00000DF91CF910895CF93DF93CDB7DEB7E8
S1130AB081EC90E028E9FC0120830000DF91CF91D4
S1130AC00895CF93DF931F92CDB7DEB789830000DB
S1130AD088EC90E0FC018081882F90E08072992757
S1130AE0892BB1F38EEC90E02981FC012083000076
S1130AF00F90DF91CF910895CF93DF9300D01F9291
S1130B00CDB7DEB79C838B831A8219820EC089818C
S1130B109A812B813C81820F931FFC018081D1DF5C
S1130B2089819A8101969A83898389819A812B810B
S1130B303C81820F931FFC0180818D3041F70000BE
S1130B400F900F900F900F90DF91CF910895F8942C
S1050B50FFCFD1
S1130B52FA02304246303535303041450D023042DA
S1130B6246303939303136330D023042463035356C
S1130B72343045450D023042463041413031353042
S1130B820D02304246303535303441410D02304297
S1130B9246303535303241430D0230424630353528
S1090BA2303141460D0054
S9030000FC
