S01700004265636B657250696F6E65657246572E7372656352
S113000065C0000082C0000080C000007EC0000007
S11300107CC000007AC0000078C0000076C00000F8
S113002074C0000072C0000070C000006EC0000008
S11300306CC000006AC0000068C0000066C0000018
S113004064C0000062C0000060C000005EC0000028
S11300505CC000005AC0000058C0000056C0000038
S113006054C0000052C0000050C000004EC0000048
S11300704CC000004BC0000048C0000046C0000057
S113008044C0000042C0000040C000003EC0000068
S11300903CC000003AC0000038C0000036C0000078
S11300A034C0000032C0000030C000002EC0000088
S11300B02CC000002AC0000028C0000026C0000098
S11300C024C0000022C0000020C0000011241FBE74
S11300D0CFEFD1E2DEBFCDBF00E00CBF12E0A0E065
S11300E0B2E0E8EBF1E000E00BBF02C007900D9234
S11300F0AC30B107D9F722E0ACE0B2E001C01D9208
S1130100AD30B207E1F712D055C07ACF1F920F92EB
S11301100FB60F9211248F938091790080930C0273
S11301208F910F900FBE0F901F9018950FD01DD078
S113013001D0FFCFCF93DF93C9E0D0E080E092E01D
S11301402BD02197D9F7DF91CF91089587E790E0DD
S11301509093C5008093C40088E98093C10086E22F
S11301608093C2008091C600089587E790E0909341
S1130170CD008093CC0088E08093C90086E0809312
S1130180CA008091C6000895E8ECF0E0908195FFE4
S1130190FDCF8093CE000895CF93DF93EC01888147
S11301A08D3029F02196F0DF89918D30E1F7DF91D0
S10B01B0CF910895F894FFCFEC
S10F01B802304246303541413530340DF0
S9030000FC
