S01700004265636B657250696F6E65657246572E7372656352
S113000065C0000082C0000080C000007EC0000007
S11300107CC000007AC0000078C0000076C00000F8
S113002074C0000072C0000070C000006EC0000008
S11300306CC000006AC0000068C0000066C0000018
S113004064C0000062C0000060C000005EC0000028
S11300505CC000005AC0000058C0000056C0000038
S113006054C0000069C1000050C000004EC0000030
S11300704CC000004BC0000048C0000046C0000057
S113008044C0000042C0000040C000003EC0000068
S11300903CC000003AC0000038C0000036C0000078
S11300A034C0000032C0000030C000002EC0000088
S11300B02CC00000C3C5000028C0000026C00000FA
S11300C024C0000022C0000020C0000011241FBE74
S11300D0CFEFD1E2DEBFCDBF00E00CBF12E0A0E065
S11300E0B2E0E2E6FEE000E00BBF02C007900D9232
S11300F0A236B107D9F722E0A2E6B2E001C01D9210
S1130100A83DB207E1F791D2AAC67ACF1F920F9207
S113011000905F000F92112400905B000F928F9368
S11301209F93EF93FF93CF93DF93CDB7DEB789E728
S113013090E0FC018081809300020000DF91CF9168
S1130140FF91EF919F918F910F9000925B000F9020
S113015000925F000F901F901895CF93DF93CDB757
S1130160DEB710926A021092D7020000DF91CF919D
S11301700895CF93DF931F921F92CDB7DEB7898383
S11301806A8380916A02482F50E08981882F90E029
S113019064E2649F9001659F300D1124820F931FC8
S11301A085599D4F2A81FC01208300000F900F90F8
S11301B0DF91CF910895CF93DF93CDB7DEB78091D0
S11301C06A028F5F80936A0280916A02833011F41D
S11301D010926A020000DF91CF910895CF93DF93CC
S11301E0CDB7DEB790916A028091D702981719F4BF
S11301F080E090E00CC08091D702282F30E044E2E8
S1130200429FC001439F900D112485599D4FDF915A
S1130210CF910895CF93DF93CDB7DEB790916A0263
S11302208091D702292F281B822FDF91CF91089527
S1130230CF93DF93CDB7DEB78091D7028F5F8093E2
S1130240D7028091D702833011F41092D7020000B4
S1130250DF91CF910895CF93DF93CDB7DEB73AD531
S113026008D07BDF1092620216D40000DF91CF9198
S11302700895CF93DF93CDB7DEB78DE290E02DE202
S113028030E0F90120812B7FFC0120838EE290E095
S11302902EE230E0F90120812460FC01208300007B
S11302A0DF91CF910895CF93DF93CDB7DEB7279732
S11302B00FB6F894DEBF0FBECDBF9F838E838AE056
S11302C090E01ED419821C821D828E819F81FC01C4
S11302D081818C833BD51B821A8219C08A819B81C0
S11302E02E813F81820F931FFC0180819981892790
S11302F089838A819B812E813F81820F931FFC0118
S1130300808109D58A819B8101969B838A838C8114
S1130310282F30E08A819B8128173907FCF68981D0
S1130320FAD425D5000027960FB6F894DEBF0FBE89
S1130330CDBFDF91CF9108951F920F9200905F007F
S11303400F92112400905B000F922F933F934F93D1
S11303505F936F937F938F939F93AF93BF93EF9329
S1130360FF93CF93DF931F921F92CDB7DEB786EC36
S113037090E0FC01808189839BD38A838A818E31BA
S113038038F0698180E0F5DE82E08093620243C048
S113039080916202882F90E08230910519F00397D2
S11303A0A9F039C08981843268F489818093630219
S11303B0698181E0DEDE82E08093640283E08093E1
S11303C0620229C081E08093620225C080916402A8
S11303D0282F30E080916302882F90E0029628173E
S11303E0390724F4809164026981C3DE8091640238
S11303F08F5F8093640280916402282F30E08091A3
S11304006302882F90E002962817390719F4D3DE87
S113041010926202000063D300000F900F90DF91EE
S1130420CF91FF91EF91BF91AF919F918F917F9168
S11304306F915F914F913F912F910F9000925B00CC
S11304400F9000925F000F901F901895CF93DF9349
S113045000D01F921F92CDB7DEB780ED898385E06F
S11304608A838FEB8B838CE58C83809100028D8350
S11304701E82CE01019617DF00000F900F900F909F
S11304800F900F90DF91CF910895CF93DF9300D019
S113049000D0CDB7DEB78E838E81898384E08A83D2
S11304A08FEF8B8382E08C8381E08D83CE01019674
S11304B0FADE000026960FB6F894DEBF0FBECDBF5D
S11304C0DF91CF910895CF93DF931F921F92CDB701
S11304D0DEB79A83898389819A81FC018081882F80
S11304E090E08035910509F09AC089819A8102963D
S11304F0FC018081882F90E0883C910509F463C059
S1130500803D910509F451C08836910509F086C0F3
S113051089819A810396FC018081882F90E082333F
S1130520910519F0CB9799F079C089819A81049645
S1130530FC018081882F90E08031910529F041975A
S113054009F032C014D202C01DD200002DC089812E
S11305509A810496FC018081882F90E08131910575
S1130560A9F08231910534F48130910561F0089746
S113057091F019C08132910561F08832910589F0BA
S1130580489761F010C080E008D20DC081E005D228
S11305900AC011D208C080E000D205C080E0FDD1BD
S11305A002C019D20000000039C089819A810396E3
S11305B0FC018081882F90E08D35910509F02EC0D3
S11305C045DF00002BC089819A810396FC0180815C
S11305D0882F90E08130910519F0CB9721F01DC050
S11305E088EC53DF1AC089819A810496FC018081CA
S11305F0882F90E08039910551F0803A910551F0AF
S11306008038910509F008C080E0F5D105C081E08B
S1130610F2D102C0FED10000000000000000000082
S11306200F900F90DF91CF910895CF93DF9300D077
S1130630CDB7DEB7198278940EDE8FD1EBDD8983D6
S113064089818823D9F3CADD9B838A838A819B812C
S11306503ADFEEDDF3CFCF93DF931F921F92CDB736
S1130660DEB789836A8385E290E025E230E0F90110
S113067020812E7FFC0120838981805FF5D18A81CE
S1130680F3D185E290E025E230E0F9012081216098
S1130690FC01208300000F900F90DF91CF9108950B
S11306A0CF93DF931F92CDB7DEB7898385E290E0C5
S11306B025E230E0F90120812E7FFC01208389812D
S11306C0805ED2D18FEFD0D185E290E025E230E098
S11306D0F90120812160FC01208300000F90DF914B
S11306E0CF910895CF93DF93CDB7DEB72C970FB694
S11306F0F894DEBF0FBECDBF2CE0E9E1F2E0CE01FD
S11307000196DC0101900D922A95E1F7CE01019644
S113071079D300002C960FB6F894DEBF0FBECDBF80
S1130720DF91CF910895CF93DF93CDB7DEB72C97A8
S11307300FB6F894DEBF0FBECDBF2CE0E5E2F2E0C9
S1130740CE010196DC0101900D922A95E1F7CE01CC
S1130750019658D300002C960FB6F894DEBF0FBE56
S1130760CDBFDF91CF910895CF93DF93CDB7DEB79F
S11307702C970FB6F894DEBF0FBECDBF2CE0E1E39B
S1130780F2E0CE010196DC0101900D922A95E1F789
S1130790CE01019637D300002C960FB6F894DEBF35
S11307A00FBECDBFDF91CF910895CF93DF93CDB727
S11307B0DEB72C970FB6F894DEBF0FBECDBF2CE08A
S11307C0EDE3F2E0CE010196DC0101900D922A9551
S11307D0E1F7CE01019616D300002C960FB6F894DB
S11307E0DEBF0FBECDBFDF91CF910895CF93DF93CE
S11307F0CDB7DEB72C970FB6F894DEBF0FBECDBFD2
S11308002CE0E9E4F2E0CE010196DC0101900D92C6
S11308102A95E1F7CE010196F5D200002C960FB689
S1130820F894DEBF0FBECDBFDF91CF910895CF9373
S1130830DF93CDB7DEB72C970FB6F894DEBF0FBEAB
S1130840CDBF2CE0E5E5F2E0CE010196DC0101909C
S11308500D922A95E1F7CE010196D4D200002C9690
S11308600FB6F894DEBF0FBECDBFDF91CF910895D0
S1130870CF93DF93CDB7DEB787D281E08093650253
S11308807AD10000DF91CF910895CF93DF93CDB754
S1130890DEB781E092E0B6D20000DF91CF910895F7
S11308A0CF93DF93CDB7DEB78DE092E0ABD20000FB
S11308B0DF91CF910895CF93DF93CDB7DEB781E079
S11308C08093660279D10000DF91CF910895CF9390
S11308D0DF93CDB7DEB7A5D02CD00000DF91CF9148
S11308E00895CF93DF93CDB7DEB766ED81E0B3DE35
S11308F066ED82E0B0DE0000DF91CF910895CF93E2
S1130900DF93CDB7DEB764EC81E0A5DE64EC82E072
S1130910A2DE0000DF91CF910895CF93DF93CDB78E
S1130920DEB781E08093660247D10000DF91CF916A
S11309300895CF93DF93CDB7DEB783E0B1DE000037
S1130940DF91CF910895CF93DF93CDB7DEB7B3DFB7
S1130950E4DF0000DF91CF910895CF93DF93CDB70B
S1130960DEB7B5DF85DF0000DF91CF910895CF9327
S1130970DF93CDB7DEB73ADFB4DFE5DF0000DF9108
S1130980CF910895CF93DF93CDB7DEB750DFB7DFB4
S1130990DADF0000DF91CF910895CF93DF931F92A8
S11309A0CDB7DEB7898389818093670200000F90F9
S11309B0DF91CF910895CF93DF93CDB7DEB78091C8
S11309C06702882311F0AFDE01C08CDEBCDF0000BB
S11309D0DF91CF910895CF93DF93CDB7DEB78091A8
S11309E06702882311F0E1DE01C0BEDEACDF000047
S11309F0DF91CF910895CF93DF931F92CDB7DEB7E8
S1130A00898389818093680200000F90DF91CF91E0
S1130A100895CF93DF93CDB7DEB70000DF91CF9178
S1130A200895CF93DF93CDB7DEB784E290E024E25C
S1130A3030E0F90120812760FC01208385E290E009
S1130A4025E230E0F90120812160FC0120838CE45F
S1130A5090E02CE430E0F90120812165FC01208341
S1130A600000DF91CF910895CF93DF931F92CDB70C
S1130A70DEB789838EE490E02981FC0120830000A5
S1130A808DE490E0FC0180818823D4F700000F906E
S1130A90DF91CF910895CF93DF93CDB7DEB785E48F
S1130AA090E025E0FC0120830000DF91CF910895C0
S1130AB0CF93DF93CDB7DEB785E390E0FC0180816F
S1130AC0882F90E081709927892B11F08FEF04C053
S1130AD086E490E0FC018081DF91CF910895CF936B
S1130AE0DF93CDB7DEB785E390E021E0FC012083FE
S1130AF086E490E0FC0110820000DF91CF9108951C
S1130B00CF93DF931F921F92CDB7DEB79A83898369
S1130B1084E291E020E831ECFC013183208381E21E
S1130B2091E021E231E0F90120812160FC01208380
S1130B3000008AE390E0FC018081882F90E08170BE
S1130B409927892BB1F38AE390E02AE330E0F90195
S1130B5020812160FC01208389819A8101979A83F5
S1130B60898389819A81892B99F600000F900F90CF
S1130B70DF91CF910895CF93DF93CDB7DEB784EAA9
S1130B8090E02EEE35E8FC013183208381EA90E089
S1130B9021EA30E0F90120812460FC01208382E70E
S1130BA090E022E730E0F90120812160FC012083FC
S1130BB00000DF91CF910895CF93DF93CDB7DEB7D7
S1130BC084EA90E02EE13BEFFC013183208381EA4B
S1130BD090E021EA30E0F90120812560FC012083C6
S1130BE082E790E022E730E0F90120812160FC01F6
S1130BF020830000DF91CF910895CF93DF93CDB789
S1130C00DEB781EA90E021EA30E0F9012081FC01BD
S1130C1020830000DF91CF910895CF93DF93CDB768
S1130C20DEB781EA90E021EA30E0F90120812A7FF1
S1130C30FC0120830000DF91CF9108951F920F9251
S1130C4000905F000F92112400905B000F922F938D
S1130C503F934F935F936F937F938F939F93AF9340
S1130C60BF93EF93FF93CF93DF93CDB7DEB780911C
S1130C706502882371F080916902883038F405DEBA
S1130C80809169028F5F8093690203C010926502AC
S1130C90B4DF80916602882329F002DE4ADE1092D6
S1130CA06602BBDF0000DF91CF91FF91EF91BF910E
S1130CB0AF919F918F917F916F915F914F913F91F0
S1130CC02F910F9000925B000F9000925F000F90A5
S1130CD01F901895CF93DF931F92CDB7DEB719827B
S1130CE084EC90E027E630E0FC013183208381EC42
S1130CF090E028E9FC01208382EC90E026E2FC01EC
S1130D00208386EC90E0FC018081898300000F90B1
S1130D10DF91CF910895CF93DF931F92CDB7DEB7C4
S1130D208983000080EC90E0FC018081882F90E0B2
S1130D3080729927892BB1F386EC90E02981FC011C
S1130D40208300000F90DF91CF910895CF93DF931C
S1130D50CDB7DEB781EC90E021EC30E0F9012081E1
S1130D602F7EFC0120830000DF91CF910895CF9363
S1130D70DF93CDB7DEB781EC90E028E9FC01208356
S1130D800000DF91CF910895CF93DF931F92CDB7E9
S1130D90DEB719828CEC90E027E630E0FC01318369
S1130DA0208389EC90E028E0FC0120838AEC90E029
S1130DB026E0FC0120838EEC90E0FC018081898395
S1130DC085E305D000000F90DF91CF910895CF9374
S1130DD0DF931F92CDB7DEB78983000088EC90E0E3
S1130DE0FC018081882F90E080729927892BB1F3D0
S1130DF08EEC90E02981FC01208300000F90DF91AC
S1130E00CF910895CF93DF9300D01F92CDB7DEB773
S1130E109C838B831A8219820EC089819A812B81CB
S1130E203C81820F931FFC018081D1DF89819A81EB
S1130E3001969A83898389819A812B813C81820FCF
S1130E40931FFC0180818D3041F78DE0C0DF0000ED
S1130E500F900F900F900F90DF91CF910895F89419
S1050E60FFCFBE
S1130E62FA02304246303541413530340D023042C7
S1130E7246303535303041450D023042463039393D
S1130E82303136330D023042463035353430454543
S1130E920D02304246304141303135300D0230428C
S1130EA246303535303441410D0230424630353515
S1130EB2303241430D0230424630353530314146FD
S1050EC20D001D
S9030000FC
