S01700004265636B657250696F6E65657246572E7372656352
S113000065C0000082C0000080C000007EC0000007
S11300107CC000007AC0000078C0000076C00000F8
S113002074C0000072C0000070C000006EC0000008
S11300306CC000006AC0000068C0000066C0000018
S113004064C0000062C0000060C000005EC0000028
S11300505CC000005AC0000058C0000056C0000038
S113006054C000009FC1000050C000004EC00000FA
S11300704CC0000066C0000048C0000046C000003C
S113008044C0000042C0000040C0000047C6000059
S11300903CC000003AC0000038C0000036C0000078
S11300A034C0000032C0000030C000002EC0000088
S11300B02CC000006CC6000028C0000026C0000050
S11300C024C0000022C0000020C0000011241FBE74
S11300D0CFEFD1E2DEBFCDBF00E00CBF12E0A0E065
S11300E0B2E0E2ECFFE000E00BBF02C007900D922B
S11300F0A036B107D9F722E0A0E6B2E001C01D9214
S1130100A83DB207E1F7D1D25AC77ACFCF93DF9394
S1130110CDB7DEB78CE790E020E4FC0120838AE7CA
S113012090E02FEAFC0120838AE790E02AE730E0A0
S1130130F90120812064FC0120830000DF91CF912C
S113014008951F920F9200905F000F921124009067
S11301505B000F928F939F93EF93FF93CF93DF9363
S11301601F921F92CDB7DEB788E790E0FC01808133
S113017091819A83898389819A81969587959695A9
S113018087958093600200000F900F90DF91CF91CC
S1130190FF91EF919F918F910F9000925B000F90D0
S11301A000925F000F901F901895CF93DF93CDB707
S11301B0DEB710926A021092D7020000DF91CF914D
S11301C00895CF93DF931F921F92CDB7DEB7898333
S11301D06A8380916A02482F50E08981882F90E0D9
S11301E064E2649F9001659F300D1124820F931F78
S11301F085599D4F2A81FC01208300000F900F90A8
S1130200DF91CF910895CF93DF93CDB7DEB780917F
S11302106A028F5F80936A0280916A02833011F4CC
S113022010926A020000DF91CF910895CF93DF937B
S1130230CDB7DEB790916A028091D702981719F46E
S113024080E090E00CC08091D702282F30E044E297
S1130250429FC001439F900D112485599D4FDF910A
S1130260CF910895CF93DF93CDB7DEB790916A0213
S11302708091D702292F281B822FDF91CF910895D7
S1130280CF93DF93CDB7DEB78091D7028F5F809392
S1130290D7028091D702833011F41092D702000064
S11302A0DF91CF910895CF93DF93CDB7DEB7C2D559
S11302B008D07BDF1092610278D40000DF91CF91E7
S11302C00895CF93DF93CDB7DEB78DE290E02DE2B2
S11302D030E0F90120812B7FFC0120838EE290E045
S11302E02EE230E0F90120812460FC01208300002B
S11302F0DF91CF910895CF93DF93CDB7DEB72797E2
S11303000FB6F894DEBF0FBECDBF9F838E831982D4
S11303101D821A828E819F81FC0181818D830DC093
S11303208CE290E0FC018081882F90E08470992712
S1130330892B09F05ED446D48A838A818D3180F377
S1130340B5D51C821B8219C08B819C812E813F8173
S1130350820F931FFC0180819981892789838B8176
S11303609C812E813F81820F931FFC01808183D564
S11303708B819C8101969C838B838D81282F30E017
S11303808B819C8128173907FCF6898174D59FD508
S1130390000027960FB6F894DEBF0FBECDBFDF91E5
S11303A0CF9108951F920F9200905F000F92112435
S11303B000905B000F922F933F934F935F936F9343
S11303C07F938F939F93AF93BF93EF93FF93CF93B9
S11303D0DF931F921F92CDB7DEB786EC90E0FC014D
S11303E080818983EFD38A838A818E3138F0698151
S11303F080E0E7DE82E08093610243C08091610285
S1130400882F90E08230910519F00397A9F039C044
S11304108981843268F4898180936202698181E0F0
S1130420D0DE82E08093630283E08093610229C07E
S113043081E08093610225C080916302282F30E01F
S113044080916202882F90E002962817390724F4DD
S1130450809163026981B5DE809163028F5F80932E
S1130460630280916302282F30E080916202882F1A
S113047090E002962817390719F4C5DE109261023C
S11304800000B7D300000F900F90DF91CF91FF9140
S1130490EF91BF91AF919F918F917F916F915F91F8
S11304A04F913F912F910F9000925B000F9000921B
S11304B05F000F901F901895CF93DF9300D01F9289
S11304C01F92CDB7DEB780ED898385E08A838FEBF9
S11304D08B838CE58C83809160028D831E82CE0198
S11304E0019609DF9091640281E08927882321F035
S11304F0D3D381E08093640200000F900F900F909B
S11305000F900F90DF91CF910895CF93DF9300D098
S113051000D0CDB7DEB78E838E81898384E08A8351
S11305208FEF8B8382E08C8381E08D83CE010196F3
S1130530E2DE000026960FB6F894DEBF0FBECDBFF4
S1130540DF91CF910895CF93DF931F921F92CDB780
S1130550DEB79A83898389819A81FC018081882FFF
S113056090E08035910509F09AC089819A810296BC
S1130570FC018081882F90E0883C910509F463C0D8
S1130580803D910509F451C08836910509F086C073
S113059089819A810396FC018081882F90E08233BF
S11305A0910519F0CB9799F079C089819A810496C5
S11305B0FC018081882F90E08031910529F04197DA
S11305C009F032C05AD202C063D200002DC0898122
S11305D09A810496FC018081882F90E081319105F5
S11305E0A9F08231910534F48130910561F00897C6
S11305F091F019C08132910561F08832910589F03A
S1130600489761F010C080E04ED20DC081E04BD21B
S11306100AC057D208C080E046D205C080E043D269
S113062002C061D20000000039C089819A8103961A
S1130630FC018081882F90E08D35910509F02EC052
S11306403BDF00002BC089819A810396FC018081E5
S1130650882F90E08130910519F0CB9721F01DC0CF
S113066088EC53DF1AC089819A810496FC01808149
S1130670882F90E08039910551F0803A910551F02E
S11306808038910509F008C080E03FD205C081E0C0
S11306903CD202C048D2000000000000000000006C
S11306A00F900F90DF91CF910895CF93DF9300D0F7
S11306B0CDB7DEB71982789429DDF5DDD4D1D2DD4A
S11306C0898389818823D9F3B1DD9B838A838A81D5
S11306D09B8139DFD5DDF3CFCF93DF93CDB7DEB781
S11306E084E290E024E230E0F90120812066FC01FC
S11306F0208385E290E025E230E0F90120812F7D1E
S1130700FC01208385E290E025E230E0F9012081BC
S11307102F7BFC01208385E290E025E230E0F901A3
S113072020812064FC0120830000DF91CF91089593
S1130730CF93DF931F921F92CDB7DEB789836A836D
S113074085E290E025E230E0F90120812E7FFC0172
S113075020838981805F12D28A8110D285E290E061
S113076025E230E0F90120812160FC0120830000B2
S11307700F900F90DF91CF910895CF93DF93CDB772
S1130780DEB785E290E025E230E0F90120812F7D9B
S1130790FC0120830000DF91CF910895CF93DF9374
S11307A0CDB7DEB72C970FB6F894DEBF0FBECDBF22
S11307B02CE0E8E1F2E0CE010196DC0101900D921B
S11307C02A95E1F7CE010196CDD300002C960FB601
S11307D0F894DEBF0FBECDBFDF91CF910895CF93C4
S11307E0DF93CDB7DEB72C970FB6F894DEBF0FBEFC
S11307F0CDBF2CE0E4E2F2E0CE010196DC010190F1
S11308000D922A95E1F7CE010196ACD300002C9607
S11308100FB6F894DEBF0FBECDBFDF91CF91089520
S1130820CF93DF93CDB7DEB72C970FB6F894DEBF26
S11308300FBECDBF2CE0E0E3F2E0CE010196DC0177
S113084001900D922A95E1F7CE0101968BD3000019
S11308502C960FB6F894DEBF0FBECDBFDF91CF91BB
S11308600895CF93DF93CDB7DEB72C970FB6F894E6
S1130870DEBF0FBECDBF2CE0ECE3F2E0CE0101966B
S1130880DC0101900D922A95E1F7CE0101966AD31D
S113089000002C960FB6F894DEBF0FBECDBFDF91DB
S11308A0CF910895CF93DF93CDB7DEB72C970FB6D2
S11308B0F894DEBF0FBECDBF2CE0E8E4F2E0CE0139
S11308C00196DC0101900D922A95E1F7CE01019683
S11308D049D300002C960FB6F894DEBF0FBECDBFEF
S11308E0DF91CF910895CF93DF93CDB7DEB72C97E7
S11308F00FB6F894DEBF0FBECDBF2CE0E4E5F2E006
S1130900CE010196DC0101900D922A95E1F7CE010A
S1130910019628D300002C960FB6F894DEBF0FBEC4
S1130920CDBFDF91CF910895CF93DF93CDB7DEB7DD
S1130930DBD281E0809365026DD10000DF91CF911D
S11309400895CF93DF93CDB7DEB780E092E00AD36A
S11309500000DF91CF910895CF93DF93CDB7DEB739
S11309608CE092E0FFD20000DF91CF910895CF9305
S1130970DF93CDB7DEB784E290E024E230E0F90102
S113098020812F7EFC012083D6D0A6DE0000DF91DB
S1130990CF910895CF93DF93CDB7DEB760EF81E0B9
S11309A0C7DE66EE82E0C4DE0000DF91CF910895D9
S11309B0CF93DF93CDB7DEB760EF81E0B9DE66EEAB
S11309C082E0B6DE0000DF91CF910895CF93DF93EC
S11309D0CDB7DEB761EE81E0ABDE65EE82E0A8DE86
S11309E00000DF91CF910895CF93DF93CDB7DEB7A9
S11309F061EE81E09DDE65EE82E09ADE0000DF912B
S1130A00CF910895CF93DF93CDB7DEB768ED81E042
S1130A108FDE67ED82E08CDE0000DF91CF910895D8
S1130A20CF93DF93CDB7DEB765EC81E081DE67EC71
S1130A3082E07EDE0000DF91CF910895CF93DF93B3
S1130A40CDB7DEB79ADE0000DF91CF910895CF9342
S1130A50DF93CDB7DEB781E080936602FCD000005F
S1130A60DF91CF910895CF93DF93CDB7DEB77FDFCA
S1130A705BDF0000DF91CF910895CF93DF93CDB773
S1130A80DEB710DFBFDFE3DF0000DF91CF91089511
S1130A90CF93DF93CDB7DEB726DFC2DFD8DF000008
S1130AA0DF91CF910895CF93DF931F92CDB7DEB737
S1130AB0898389818093670200000F90DF91CF9131
S1130AC00895CF93DF93CDB7DEB780916702882373
S1130AD019F085DE6DDF02C061DE5CDFB8DF000087
S1130AE0DF91CF910895CF93DF93CDB7DEB7809197
S1130AF06702882319F0B5DE77DF02C091DE66DF76
S1130B00A6DF0000DF91CF910895CF93DF931F926A
S1130B10CDB7DEB7898389818093680200000F9086
S1130B20DF91CF910895CF93DF93CDB7DEB7000067
S1130B30DF91CF910895CF93DF93CDB7DEB784E2F1
S1130B4090E024E230E0F90120812760FC01208359
S1130B5085E290E025E230E0F90120812160FC018A
S1130B6020838CE490E02CE430E0F90120812065BE
S1130B70FC0120830000DF91CF910895CF93DF9390
S1130B801F92CDB7DEB789838EE490E02981FC0102
S1130B90208300008DE490E0FC0180818823D4F759
S1130BA000000F90DF91CF910895CF93DF93CDB7DD
S1130BB0DEB785E490E025E0FC0120830000DF91AE
S1130BC0CF910895CF93DF93CDB7DEB785E390E05F
S1130BD0FC018081882F90E081709927892B11F086
S1130BE08FEF04C086E490E0FC018081DF91CF9117
S1130BF00895CF93DF93CDB7DEB785E390E021E08E
S1130C00FC01208386E490E0FC0110820000DF9167
S1130C10CF910895CF93DF93CDB7DEB784EA90E008
S1130C202EEE35E8FC013183208381EA90E021EA4D
S1130C3030E0F90120812460FC01208382E790E008
S1130C4022E730E0F90120812160FC0120830000CB
S1130C50DF91CF910895CF93DF93CDB7DEB784EAC8
S1130C6090E02EE13BEFFC013183208381EA90E0A8
S1130C7021EA30E0F90120812560FC01208382E72C
S1130C8090E022E730E0F90120812160FC0120831B
S1130C900000DF91CF910895CF93DF93CDB7DEB7F6
S1130CA084E990E022EC36EBFC013183208381E976
S1130CB090E021E930E0F90120812460FC012083E7
S1130CC081E790E021E730E0F90120812160FC0117
S1130CD020830000DF91CF910895CF93DF93CDB7A8
S1130CE0DEB781EA90E021EA30E0F9012081FC01DD
S1130CF020830000DF91CF910895CF93DF93CDB788
S1130D00DEB781EA90E021EA30E0F90120812A7F10
S1130D10FC0120830000DF91CF9108951F920F9270
S1130D2000905F000F92112400905B000F922F93AC
S1130D303F934F935F936F937F938F939F93AF935F
S1130D40BF93EF93FF93CF93DF93CDB7DEB784E9DF
S1130D5090E022EC36EBFC0131832083ADDB000014
S1130D60DF91CF91FF91EF91BF91AF919F918F91BF
S1130D707F916F915F914F913F912F910F900092CE
S1130D805B000F9000925F000F901F9018951F92C8
S1130D900F9200905F000F92112400905B000F925D
S1130DA02F933F934F935F936F937F938F939F936F
S1130DB0AF93BF93EF93FF93CF93DF93CDB7DEB79A
S1130DC0809165028823A9F080916902883070F4CB
S1130DD084EA90E02EEE35E8FC0131832083B1DD16
S1130DE0809169028F5F8093690203C0109265024B
S1130DF074DF80916602882329F0AEDD1FDE109235
S1130E0066027BDF0000DF91CF91FF91EF91BF91EC
S1130E10AF919F918F917F916F915F914F913F918E
S1130E202F910F9000925B000F9000925F000F9043
S1130E301F901895CF93DF931F92CDB7DEB7198219
S1130E4084EC90E027E630E0FC013183208381ECE0
S1130E5090E028E9FC01208382EC90E026E2FC018A
S1130E60208386EC90E0FC018081898300000F9050
S1130E70DF91CF910895CF93DF931F92CDB7DEB763
S1130E808983000080EC90E0FC018081882F90E051
S1130E9080729927892BB1F386EC90E02981FC01BB
S1130EA0208300000F90DF91CF910895CF93DF93BB
S1130EB0CDB7DEB781EC90E021EC30E0F901208180
S1130EC02F7EFC0120830000DF91CF910895CF9302
S1130ED0DF93CDB7DEB781EC90E028E9FC012083F5
S1130EE00000DF91CF910895CF93DF931F92CDB788
S1130EF0DEB719828CEC90E027E630E0FC01318308
S1130F00208389EC90E028E0FC0120838AEC90E0C7
S1130F1026E0FC0120838EEC90E0FC018081898333
S1130F2085E305D000000F90DF91CF910895CF9312
S1130F30DF931F92CDB7DEB78983000088EC90E081
S1130F40FC018081882F90E080729927892BB1F36E
S1130F508EEC90E02981FC01208300000F90DF914A
S1130F60CF910895CF93DF9300D01F92CDB7DEB712
S1130F709C838B831A8219820EC089819A812B816A
S1130F803C81820F931FFC018081D1DF89819A818A
S1130F9001969A83898389819A812B813C81820F6E
S1130FA0931FFC0180818D3041F78DE0C0DF00008C
S1130FB00F900F900F900F90DF91CF910895F894B8
S1050FC0FFCF5D
S1130FC202304246303541413530340D023042461A
S1130FD2303535303041450D0230424630393930F2
S1130FE23136330D02304246303535343045450D05
S1130FF202304246304141303135300D02304246F2
S1131002303535303441410D0230424630353530C9
S11310123241430D02304246303535303141460DBE
S9030000FC
